:020000040800F2
:1000000000280020C90B00086D0B0008730B0008C6
:10001000790B00087F0B0008850B0008000000002A
:100020000000000000000000000000008B0B000832
:10003000970B000800000000A30B0008AF0B00089E
:10004000110C0008110C0008110C0008110C00081C
:10005000110C0008110C0008110C0008110C00080C
:10006000110C0008110C0008110C0008110C0008FC
:10007000110C0008110C0008110C0008110C0008EC
:10008000110C0008110C0008110C0008110C0008DC
:10009000110C0008110C0008110C0008110C0008CC
:1000A000110C0008110C0008110C0008110C0008BC
:1000B000110C0008110C000800000000110C0008D1
:1000C000110C00080000000000000000110C0008E6
:1000D00000000000110C0008110C000800000000D6
:1000E000110C0008110C0008110C000800000000A1
:1000F0000000000000000000000000000000000000
:0C01000000000000000000005FF808F1A3
:10010C0010B5054C237833B9044B13B10448AFF345
:10011C0000800123237010BD0C00002000000000A3
:10012C001C1A000808B5034B1BB103490348AFF375
:10013C00008008BD00000000100000201C1A000800
:10014C0080B500AF01224FF48051124801F040F805
:10015C0001224FF400610F4801F03AF801224FF4EC
:10016C0080610C4801F034F80B4B02221A600B4BE7
:10017C0003221A600A4B00221A600A4B05221A60ED
:10018C00064B1B68084A1360064B1B68074A136032
:10019C0000BF80BD00080140480000203400002052
:1001AC004C0000202C0000204400002028000020DF
:1001BC0080B500AF824B1B68022B52D0022B7BDC2C
:1001CC00002B02D0012B26D076E000224FF4805178
:1001DC007C4800F0FDFF01224FF40061794800F0EB
:1001EC00F7FF01224FF48061764800F0F1FF764B67
:1001FC001B68764A1360744B1B68013B724A136090
:10020C00714B1B68002B52DC6D4B02221A606E4B3B
:10021C0003221A604BE001224FF48051694800F030
:10022C00D7FF00224FF40061664800F0D1FF012295
:10023C004FF48061634800F0CBFF634B1B68634A4B
:10024C001360614B1B68013B5F4A13605E4B1B687C
:10025C00002B2EDC5A4B00221A605B4B05221A60D5
:10026C0027E001224FF48051564800F0B1FF0122E3
:10027C004FF40061534800F0ABFF00224FF4806153
:10028C00504800F0A5FF504B1B68504A13604E4B72
:10029C001B68013B4C4A13604B4B1B68002B0ADC60
:1002AC00474B01221A60484B02221A6003E000BF40
:1002BC0002E000BF00E000BF454B1B68022B52D090
:1002CC00022B7BDC002B02D0012B26D076E0002207
:1002DC004FF400413B4800F07BFF01224FF480417A
:1002EC00384800F075FF01224FF40051354800F0FA
:1002FC006FFF384B1B68384A1360364B1B68013B49
:10030C00344A1360334B1B68002B52DC304B0222F7
:10031C001A60304B03221A604BE001224FF400416B
:10032C00284800F055FF00224FF48041254800F08A
:10033C004FFF01224FF40051224800F049FF254B9A
:10034C001B68254A1360234B1B68013B214A136031
:10035C00204B1B68002B2EDC1D4B00221A601D4B02
:10036C0005221A6027E001224FF40041154800F0E5
:10037C002FFF01224FF48041124800F029FF002288
:10038C004FF400510F4800F023FF124B1B68124A28
:10039C001360104B1B68013B0E4A13600D4B1B681E
:1003AC00002B0ADC0A4B01221A600A4B02221A604B
:1003BC0003E000BF02E000BF00E000BF00BF80BD53
:1003CC0048000020000801403400002044000020B8
:1003DC004C0000202C0000202800002080B500AF2D
:1003EC0001220821134800F0F3FE012210211148CC
:1003FC0000F0EEFE012220210E4800F0E9FE012261
:10040C0040210C4800F0E4FE01228021094800F054
:10041C00DFFE01224FF48071064800F0D9FE012264
:10042C004FF40071034800F0D3FE034B00221A6016
:10043C0000BF80BD000801403C00002080B500AF2B
:10044C00FFF7CCFFFFF77CFE00BF80BD80B582B00C
:10045C0000AF78607B68092B00F2948101A252F8FE
:10046C0023F000BF99040008E504000831050008DA
:10047C007D050008C905000815060008610600087E
:10048C00AD060008F90600084507000800220821FF
:10049C00BF4800F09DFE00221021BD4800F098FEE0
:1004AC0000222021BA4800F093FE00224021B848D7
:1004BC0000F08EFE00228021B54800F089FE00225B
:1004CC004FF48071B24800F083FE01224FF40071AA
:1004DC00AF4800F07DFE56E101220821AC4800F047
:1004EC0077FE00221021AA4800F072FE0022202183
:1004FC00A74800F06DFE01224021A54800F068FEDF
:10050C0001228021A24800F063FE01224FF4807189
:10051C009F4800F05DFE01224FF400719C4800F0F2
:10052C0057FE30E100220821994800F051FE0022CC
:10053C001021974800F04CFE01222021944800F035
:10054C0047FE00224021924800F042FE002280210A
:10055C008F4800F03DFE01224FF480718C4800F072
:10056C0037FE00224FF40071894800F031FE0AE199
:10057C0000220821864800F02BFE0022102184481E
:10058C0000F026FE00222021814800F021FE0022EE
:10059C0040217F4800F01CFE012280217C4800F0A5
:1005AC0017FE01224FF48071794800F011FE0022F1
:1005BC004FF40071764800F00BFEE4E001220821B4
:1005CC00734800F005FE00221021714800F000FE77
:1005DC00002220216E4800F0FBFD012240216C48D6
:1005EC0000F0F6FD01228021694800F0F1FD0022A7
:1005FC004FF48071664800F0EBFD00224FF400715F
:10060C00634800F0E5FDBEE000220821604800F0E0
:10061C00DFFD012210215E4800F0DAFD00222021CE
:10062C005B4800F0D5FD00224021594800F0D0FD78
:10063C0001228021564800F0CBFD00224FF480713E
:10064C00534800F0C5FD00224FF40071504800F0F3
:10065C00BFFD98E0002208214D4800F0B9FD0122B1
:10066C0010214B4800F0B4FD00222021484800F036
:10067C00AFFD00224021464800F0AAFD0022802157
:10068C00434800F0A5FD00224FF48071404800F073
:10069C009FFD00224FF400713D4800F099FD72E07F
:1006AC00002208213A4800F093FD0022102138481E
:1006BC0000F08EFD00222021354800F089FD01223A
:1006CC004021334800F084FD01228021304800F0A5
:1006DC007FFD01224FF480712D4800F079FD01223D
:1006EC004FF400712A4800F073FD4CE00022082101
:1006FC00274800F06DFD00221021254800F068FD10
:10070C0000222021224800F063FD002240212048D5
:10071C0000F05EFD002280211D4800F059FD0022F2
:10072C004FF480711A4800F053FD00224FF4007111
:10073C00174800F04DFD26E000220821144800F077
:10074C0047FD00221021124800F042FD002220211A
:10075C000F4800F03DFD002240210D4800F038FD0F
:10076C00012280210A4800F033FD00224FF48071F1
:10077C00074800F02DFD00224FF40071044800F0F2
:10078C0027FD00E000BF00BF0837BD4680BD00BF9D
:10079C000008014080B582B000AF78607B68052B03
:1007AC0000F2E88001A252F823F000BFD107000844
:1007BC001908000861080008A9080008F1080008D9
:1007CC0039090008002201216D4800F001FD0022CA
:1007DC0002216B4800F0FCFC00220421684800F068
:1007EC00F7FC00220821664800F0F2FC00221021E0
:1007FC00634800F0EDFC00222021614800F0E8FC89
:10080C00012240215E4800F0E3FCB4E0012201210A
:10081C005B4800F0DDFC00220221594800F0D8FCB6
:10082C0000220421564800F0D3FC01220821544830
:10083C0000F0CEFC01221021514800F0C9FC01222D
:10084C0020214F4800F0C4FC012240214C4800F00C
:10085C00BFFC90E000220121494800F0B9FC0022C5
:10086C000221474800F0B4FC01220421444800F066
:10087C00AFFC00220821424800F0AAFC0022102103
:10088C003F4800F0A5FC012220213D4800F0A0FCCF
:10089C00002240213A4800F09BFC6CE00022012130
:1008AC00374800F095FC00220221354800F090FCFE
:1008BC0000220421324800F08BFC00220821304831
:1008CC0000F086FC012210212D4800F081FC012251
:1008DC0020212B4800F07CFC00224021284800F00D
:1008EC0077FC48E001220121254800F071FC002230
:1008FC000221234800F06CFC00220421204800F067
:10090C0067FC012208211E4800F062FC0122102124
:10091C001B4800F05DFC00222021194800F058FC17
:10092C0000224021164800F053FC24E00022012153
:10093C00134800F04DFC01220221114800F048FC44
:10094C00002204210E4800F043FC002208210C4830
:10095C0000F03EFC01221021094800F039FC002275
:10096C002021074800F034FC00224021044800F00C
:10097C002FFC00E000BF00BF0837BD4680BD00BFA4
:10098C00000C014080B500AFFFF712FC054B1B6853
:10099C001846FFF75BFD044B1B681846FFF7FAFE81
:1009AC0000BF80BD440000202800002080B500AFAF
:1009BC0000F02AF900F00BF800F044F8FFF73EFDC8
:1009CC00FFF7E0FF4FF47A7000F080F9F8E780B59C
:1009DC0090B000AF07F1180328220021184601F04F
:1009EC000FF83B1D00221A605A609A60DA601A6197
:1009FC000223BB610123BB621023FB6200237B63D8
:100A0C0007F11803184600F0FBFB0346002B01D03E
:100A1C0000F06EF80F237B600023BB600023FB60AB
:100A2C0000233B6100237B613B1D0021184600F035
:100A3C0067FE0346002B01D000F05AF800BF403788
:100A4C00BD4680BD80B586B000AF07F1080300221B
:100A5C001A605A609A60DA60224B9B69214A43F013
:100A6C00040393611F4B9B6903F004037B607B6859
:100A7C001C4B9B691B4A43F008039361194B9B6900
:100A8C0003F008033B603B6800224FF6F8711648F0
:100A9C0000F09EFB00224FF6FF71144800F098FB0B
:100AAC004FF6F873BB600123FB6000233B6102230C
:100ABC007B6107F1080319460B4800F00FFA4FF65B
:100ACC00FF73BB600123FB6000233B6102237B614E
:100ADC0007F108031946054800F000FA00BF183763
:100AEC00BD4680BD0010024000080140000C0140D2
:100AFC0080B400AF72B600BFFEE7000080B485B0D2
:100B0C0000AF154B9B69144A43F001039361124BE0
:100B1C009B6903F00103BB60BB680F4BDB690E4A9A
:100B2C0043F08053D3610C4BDB6903F080537B6043
:100B3C007B680A4B5B68FB60FB6823F0E063FB603F
:100B4C00FB6843F08063FB60044AFB68536000BFA2
:100B5C001437BD4680BC70470010024000000140B5
:100B6C0080B400AFFEE780B400AFFEE780B400AF06
:100B7C00FEE780B400AFFEE780B400AFFEE780B4C0
:100B8C0000AF00BFBD4680BC704780B400AF00BF53
:100B9C00BD4680BC704780B400AF00BFBD4680BC72
:100BAC00704780B500AF00F075F800BF80BD80B411
:100BBC0000AF00BFBD4680BC70470000FFF7F7FFD9
:100BCC000B480C490C4A002302E0D458C45004339F
:100BDC00C4188C42F9D3094A094C002301E0136074
:100BEC000432A242FBD300F0E7FEFFF7DFFE7047B2
:100BFC00000000200C000020601A00080C000020EF
:100C0C0058000020FEE7000080B500AF084B1B68C1
:100C1C00074A43F010031360032000F02BF90F2058
:100C2C0000F008F8FFF76AFF0023184680BD00BFEC
:100C3C000020024080B582B000AF7860124B1A6879
:100C4C00124B1B7819464FF47A73B3FBF1F3B2FBDA
:100C5C00F3F3184600F035F90346002B01D00123BD
:100C6C000EE07B680F2B0AD8002279684FF0FF301A
:100C7C0000F00BF9064A7B681360002300E00123A7
:100C8C0018460837BD4680BD000000200800002033
:100C9C000400002080B400AF054B1B781A46054BAE
:100CAC001B681344034A136000BFBD4680BC7047E9
:100CBC00080000205400002080B400AF024B1B68D9
:100CCC001846BD4680BC70475400002080B584B0E7
:100CDC0000AF7860FFF7F0FFB8607B68FB60FB68E3
:100CEC00B3F1FF3F05D00A4B1B781A46FB6813443F
:100CFC00FB6000BFFFF7E0FF0246BB68D31AFA683F
:100D0C009A42F7D800BF00BF1037BD4680BD00BF68
:100D1C000800002080B485B000AF78607B6803F0D9
:100D2C000703FB600C4BDB68BB60BA684FF6FF0334
:100D3C001340BB60FB681A02BB68134343F0BF63EC
:100D4C0043F40033BB60044ABB68D36000BF143764
:100D5C00BD4680BC704700BF00ED00E080B400AF22
:100D6C00044BDB681B0A03F007031846BD4680BC26
:100D7C00704700BF00ED00E080B483B000AF0346C5
:100D8C003960FB7197F90730002B0ADB3B68DAB24C
:100D9C000C4997F907301201D2B20B4483F80023A7
:100DAC000AE03B68DAB20849FB7903F00F03043B15
:100DBC001201D2B20B441A7600BF0C37BD4680BC70
:100DCC00704700BF00E100E000ED00E080B489B0A6
:100DDC0000AFF860B9607A60FB6803F00703FB6151
:100DEC00FB69C3F10703042B28BF0423BB61FB6918
:100DFC000433062B02D9FB69033B00E000237B6123
:100E0C004FF0FF32BB6902FA03F3DA43BB681A40B6
:100E1C007B699A404FF0FF317B6901FA03F3D943A8
:100E2C007B680B40134318462437BD4680BC704783
:100E3C0080B582B000AF78607B68013BB3F1807FF6
:100E4C0001D301230FE00A4A7B68013B53600F2159
:100E5C004FF0FF30FFF790FF054B00229A60044BD8
:100E6C0007221A60002318460837BD4680BD00BF14
:100E7C0010E000E080B582B000AF78607868FFF7D2
:100E8C0049FF00BF0837BD4680BD80B586B000AFB6
:100E9C000346B9607A60FB7300237B61FFF75EFF4A
:100EAC0078617A68B9687869FFF790FF024697F91C
:100EBC000F3011461846FFF75FFF00BF1837BD46CD
:100ECC0080BD80B582B000AF78607868FFF7B0FF66
:100EDC00034618460837BD4680BD000080B48BB071
:100EEC0000AF7860396000237B6200233B6248E1ED
:100EFC0001227B6A02FA03F3FB613B681B68FA6907
:100F0C001340BB61BA69FB699A4240F037813B6878
:100F1C005B68A34A93425ED0A14A934275D8A14A1A
:100F2C00934258D09F4A93426FD89F4A934252D0D3
:100F3C009D4A934269D89D4A93424CD09B4A934216
:100F4C0063D89B4A934246D0994A93425DD8122B60
:100F5C002AD8122B59D801A252F823F0E30F00081B
:100F6C00BD0F0008CF0F0008111000081710000863
:100F7C0017100008171000081710000817100008A9
:100F8C001710000817100008171000081710000899
:100F9C001710000817100008171000081710000889
:100FAC00C50F0008D90F0008824A934213D02CE0D9
:100FBC003B68DB683B6229E03B68DB6804333B62DF
:100FCC0024E03B68DB6808333B621FE03B68DB686E
:100FDC000C333B621AE03B689B68002B02D1042364
:100FEC003B6213E03B689B68012B05D108233B62F5
:100FFC007B68FA691A6109E008233B627B68FA692D
:10100C005A6103E000233B6200E000BFBB69FF2B89
:10101C0001D87B6801E07B6804337B61BB69FF2BE3
:10102C0002D87B6A9B0002E07B6A083B9B003B6119
:10103C007B691A680F213B6901FA03F3DB431A4001
:10104C00396A3B6901FA03F31A437B691A603B68FE
:10105C005B6803F08053002B00F09080564B9B692B
:10106C00554A43F001039361534B9B6903F0010311
:10107C00BB60BB68514A7B6A9B08023352F8233031
:10108C00FB607B6A03F003039B000F2202FA03F35D
:10109C00DB43FA681340FB607B68494A93420DD0EE
:1010AC007B68484A934207D07B68474A934201D1F8
:1010BC00022304E0032302E0012300E000237A6A08
:1010CC0002F0030292009340FA681343FB603B4921
:1010DC007B6A9B080233FA6841F823203B685B6803
:1010EC0003F48013002B06D0384B9A683749BB6940
:1010FC0013438B6006E0354B9A68BB69DB4333497D
:10110C0013408B603B685B6803F40013002B06D024
:10111C002E4BDA682D49BB691343CB6006E02B4B91
:10112C00DA68BB69DB4329491340CB603B685B68D9
:10113C0003F40033002B06D0244B5A682349BB69B7
:10114C0013434B6006E0214B5A68BB69DB431F49D4
:10115C0013404B603B685B6803F48033002B06D074
:10116C001A4B1A681949BB6913430B6006E0174BFD
:10117C001A68BB69DB43154913400B607B6A01336A
:10118C007B623B681A687B6A22FA03F3002B7FF4BC
:10119C00AFAE00BF00BF2C37BD4680BC704700BF50
:1011AC00000032100000311000002210000021104D
:1011BC00000012100000111000100240000001404D
:1011CC0000080140000C01400010014000040140E7
:1011DC0080B483B000AF78600B467B8013467B7085
:1011EC007B78002B03D07A887B681A6103E07B88BC
:1011FC001A047B681A6100BF0C37BD4680BC70476F
:10120C0080B586B000AF78607B68002B01D10123DC
:10121C006CE27B681B6803F00103002B00F08780F5
:10122C00924B5B6803F00C03042B0CD08F4B5B6868
:10123C0003F00C03082B12D18C4B5B6803F4803346
:10124C00B3F5803F0BD1894B1B6803F40033002BA3
:10125C006CD07B685B68002B68D1012346E27B680D
:10126C005B68B3F5803F06D1804B1B687F4A43F423
:10127C00803313602EE07B685B68002B0CD17B4BBA
:10128C001B687A4A23F480331360784B1B68774AC7
:10129C0023F4802313601DE07B685B68B3F5A02FFB
:1012AC000CD1724B1B68714A43F4802313606F4B53
:1012BC001B686E4A43F4803313600BE06B4B1B6866
:1012CC006A4A23F480331360684B1B68674A23F423
:1012DC00802313607B685B68002B13D0FFF7ECFC5A
:1012EC00386108E0FFF7E8FC02463B69D31A642B2F
:1012FC0001D90323FAE15D4B1B6803F40033002B87
:10130C00F0D014E0FFF7D8FC386108E0FFF7D4FC0C
:10131C0002463B69D31A642B01D90323E6E1534BF4
:10132C001B6803F40033002BF0D100E000BF7B6896
:10133C001B6803F00203002B63D04C4B5B6803F07B
:10134C000C03002B0BD0494B5B6803F00C03082BF0
:10135C001CD1464B5B6803F48033002B16D1434BF6
:10136C001B6803F00203002B05D07B681B69012B63
:10137C0001D00123BAE13D4B1B6823F0F8027B68D6
:10138C005B69DB00394913430B603AE07B681B69EE
:10139C00002B20D0364B01221A60FFF78DFC3861F0
:1013AC0008E0FFF789FC02463B69D31A022B01D9EE
:1013BC0003239BE12D4B1B6803F00203002BF0D0A1
:1013CC002A4B1B6823F0F8027B685B69DB0027491A
:1013DC0013430B6015E0264B00221A60FFF76CFCE0
:1013EC00386108E0FFF768FC02463B69D31A022B10
:1013FC0001D903237AE11D4B1B6803F00203002B78
:10140C00F0D17B681B6803F00803002B3AD07B6893
:10141C009B69002B19D0174B01221A60FFF74CFC6B
:10142C00386108E0FFF748FC02463B69D31A022BEF
:10143C0001D903235AE10D4B5B6A03F00203002B25
:10144C00F0D0012000F09AFA1CE00A4B00221A603E
:10145C00FFF732FC38610FE0FFF72EFC02463B69C8
:10146C00D31A022B08D9032340E100BF001002401D
:10147C0000004242800442429E4B5B6A03F002032E
:10148C00002BE9D17B681B6803F00403002B00F0F0
:10149C00A6800023FB75974BDB6903F08053002B70
:1014AC000DD1944BDB69934A43F08053D361914B3C
:1014BC00DB6903F08053BB60BB680123FB758E4B6B
:1014CC001B6803F48073002B18D18B4B1B688A4A62
:1014DC0043F480731360FFF7EFFB386108E0FFF70C
:1014EC00EBFB02463B69D31A642B01D90323FDE0C5
:1014FC00814B1B6803F48073002BF0D07B68DB6896
:10150C00012B06D17B4B1B6A7A4A43F00103136211
:10151C002DE07B68DB68002B0CD1764B1B6A754A7F
:10152C0023F001031362734B1B6A724A23F004030A
:10153C0013621CE07B68DB68052B0CD16D4B1B6ABE
:10154C006C4A43F0040313626A4B1B6A694A43F00A
:10155C00010313620BE0674B1B6A664A23F001031D
:10156C001362644B1B6A634A23F0040313627B68A7
:10157C00DB68002B15D0FFF79FFB38610AE0FFF703
:10158C009BFB02463B69D31A41F28832934201D944
:10159C000323ABE0574B1B6A03F00203002BEED086
:1015AC0014E0FFF789FB38610AE0FFF785FB024680
:1015BC003B69D31A41F28832934201D9032395E057
:1015CC004C4B1B6A03F00203002BEED1FB7D012B6D
:1015DC0005D1484BDB69474A23F08053D3617B68C4
:1015EC00DB69002B00F08180424B5B6803F00C033D
:1015FC00082B61D07B68DB69022B46D13F4B002264
:10160C001A60FFF759FB386108E0FFF755FB0246FB
:10161C003B69D31A022B01D9032367E0354B1B68B6
:10162C0003F00073002BF0D17B681B6AB3F5803F8D
:10163C0008D1304B5B6823F400327B689B682D49E2
:10164C0013434B602B4B5B6823F474127B68196A51
:10165C007B685B6A0B43274913434B60274B012282
:10166C001A60FFF729FB386108E0FFF725FB0246FB
:10167C003B69D31A022B01D9032337E01D4B1B689E
:10168C0003F00073002BF0D02FE01C4B00221A60EB
:10169C00FFF712FB386108E0FFF70EFB02463B69CF
:1016AC00D31A022B01D9032320E0124B1B6803F041
:1016BC000073002BF0D118E07B68DB69012B01D1A2
:1016CC00012313E00B4B5B68FB60FB6803F4803277
:1016DC007B681B6A9A4206D1FB6803F470127B6824
:1016EC005B6A9A4201D0012300E0002318461837A8
:1016FC00BD4680BD001002400070004060004242B8
:10170C0080B584B000AF786039607B68002B01D164
:10171C000123D0E06A4B1B6803F007033A689A4236
:10172C0010D9674B1B6823F0070265493B681343CC
:10173C000B60634B1B6803F007033A689A4201D0B5
:10174C000123B8E07B681B6803F00203002B20D058
:10175C007B681B6803F00403002B05D0594B5B68B6
:10176C00584A43F4E06353607B681B6803F008033A
:10177C00002B05D0534B5B68524A43F460535360C3
:10178C00504B5B6823F0F0027B689B684D49134318
:10179C004B607B681B6803F00103002B40D07B6817
:1017AC005B68012B07D1474B1B6803F40033002BFC
:1017BC0015D101237FE07B685B68022B07D1414B7D
:1017CC001B6803F00073002B09D1012373E03D4B20
:1017DC001B6803F00203002B01D101236BE0394B92
:1017EC005B6823F003027B685B68364913434B60EC
:1017FC00FFF762FAF8600AE0FFF75EFA0246FB6850
:10180C00D31A41F28832934201D9032353E02D4B72
:10181C005B6803F00C027B685B689B009A42EBD11F
:10182C00274B1B6803F007033A689A4210D2244BEB
:10183C001B6823F0070222493B6813430B60204BC3
:10184C001B6803F007033A689A4201D0012332E087
:10185C007B681B6803F00403002B08D0194B5B68F2
:10186C0023F4E0627B68DB68164913434B607B68AA
:10187C001B6803F00803002B09D0124B5B6823F4A0
:10188C0060527B681B69DB000E4913434B6000F010
:10189C0021F802460B4B5B681B0903F00F030A4946
:1018AC00CB5C22FA03F3094A1360094B1B681846F8
:1018BC00FFF7C0F9002318461037BD4680BD00BFA6
:1018CC000020024000100240341A000800000020E2
:1018DC000400002080B487B000AF0023FB6000231D
:1018EC00BB6000237B6100237B6000233B611E4BAC
:1018FC005B68FB60FB6803F00C03042B02D0082B25
:10190C0003D027E0194B3B6127E0FB689B0C03F0ED
:10191C000F03174AD35C7B60FB6803F48033002B06
:10192C0010D0114B5B685B0C03F00103114AD35CC4
:10193C00BB607B680D4A02FB03F2BB68B2FBF3F39E
:10194C007B6104E07B680C4A02FB03F37B617B69DF
:10195C003B6102E0054B3B6100BF3B6918461C37FD
:10196C00BD4680BC704700BF0010024000127A00D8
:10197C00441A0008541A000800093D0080B485B0D0
:10198C0000AF78600A4B1B680A4AA2FB03235B0A70
:10199C007A6802FB03F3FB6000BFFB685A1EFA6017
:1019AC00002BF9D100BF00BF1437BD4680BC704777
:1019BC0000000020D34D621070B500260C4D0D4C6C
:1019CC00641BA410A64209D100F022F800260A4D8F
:1019DC000A4C641BA410A64205D170BD55F8043BFB
:1019EC0098470136EEE755F8043B98470136F2E785
:1019FC00581A0008581A0008581A00085C1A0008EF
:101A0C0003460244934200D1704703F8011BF9E7E7
:101A1C00F8B500BFF8BC08BC9E467047F8B500BFCF
:081A2C00F8BC08BC9E4670479F
:101A3400000000000000000001020304060708097A
:101A440002030405060708090A0B0C0D0E0F1010FB
:041A5400010200008B
:041A58003101000850
:041A5C000D01000870
:0C1A600000127A001000000001000000DD
:0400000508000BC91B
:00000001FF
