:020000040800F2
:10000000002800201D0C0008C10B0008C70B0008C9
:10001000CD0B0008D30B0008D90B0008000000002E
:10002000000000000000000000000000DF0B0008DE
:10003000EB0B000800000000F70B0008030C0008A1
:10004000650C0008650C0008650C0008650C0008CC
:10005000650C0008650C0008650C0008650C0008BC
:10006000650C0008650C0008650C0008650C0008AC
:10007000650C0008650C0008650C0008650C00089C
:10008000650C0008650C0008650C0008650C00088C
:10009000650C0008650C0008650C0008650C00087C
:1000A000650C0008650C0008650C0008650C00086C
:1000B000650C0008650C000800000000650C0008D5
:1000C000650C00080000000000000000650C00083E
:1000D00000000000650C0008650C0008000000002E
:1000E000650C0008650C0008650C000800000000A5
:1000F0000000000000000000000000000000000000
:0C01000000000000000000005FF808F1A3
:10010C0010B5054C237833B9044B13B10448AFF345
:10011C0000800123237010BD0C00002000000000A3
:10012C00701A000808B5034B1BB103490348AFF321
:10013C00008008BD0000000010000020701A0008AC
:10014C0080B500AF012201210A4801F06BF80122B1
:10015C000221084801F066F801220421054801F04B
:10016C0061F8054B02221A60044B03221A6000BF8F
:10017C0080BD00BF000C0140580000202C00002066
:10018C0080B500AF374B1B68022B44D0022B66DCCA
:10019C00002B02D0012B1FD061E00022012132483C
:1001AC0001F040F8012202212F4801F03BF8012216
:1001BC0004212D4801F036F82C4B1B68013B2B4ACF
:1001CC0013602A4B1B68002B44DC264B02221A605E
:1001DC00264B03221A603DE001220121224801F046
:1001EC0021F800220221204801F01CF801220421F0
:1001FC001D4801F017F81D4B1B68013B1B4A13608F
:10020C001A4B1B68002B27DC164B00221A60174B6D
:10021C0005221A6020E001220121134801F002F8A6
:10022C0001220221104800F0FDFF002204210E489B
:10023C0000F0F8FF0D4B1B68013B0C4A13600B4B95
:10024C001B68002B0ADC074B01221A60074B0222A9
:10025C001A6003E000BF02E000BF00E000BF00BF77
:10026C0080BD00BF58000020000C01402C00002075
:10027C0080B500AF01224FF48051104800F0D2FF3E
:10028C0001224FF400610D4800F0CCFF01224FF425
:10029C0080610A4800F0C6FF094B02221A60094B24
:1002AC0003221A60084B00221A60084B05221A60C0
:1002BC00044B1B68064A136000BF80BD0008014058
:1002CC00500000203C00002054000020340000208E
:1002DC002800002080B500AF7C4B1B68022B52D04D
:1002EC00022B7BDC002B02D0012B26D076E00022E7
:1002FC004FF48051764800F095FF01224FF40061D5
:10030C00734800F08FFF01224FF48061704800F0B9
:10031C0089FF704B1B68704A13606E4B1B68013B66
:10032C006C4A13606B4B1B68002B52DC674B022230
:10033C001A60684B03221A604BE001224FF4805183
:10034C00634800F06FFF00224FF40061604800F03A
:10035C0069FF01224FF480615D4800F063FF5D4B43
:10036C001B685D4A13605B4B1B68013B594A136069
:10037C00584B1B68002B2EDC544B00221A60554B3B
:10038C0005221A6027E001224FF48051504800F0FA
:10039C0049FF01224FF400614D4800F043FF002259
:1003AC004FF480614A4800F03DFF4A4B1B684A4AB3
:1003BC001360484B1B68013B464A1360454B1B6856
:1003CC00002B0ADC414B01221A60424B02221A60BC
:1003DC0003E000BF02E000BF00E000BF3F4B1B6822
:1003EC00022B4AD0022B6FDC002B02D0012B22D027
:1003FC006AE000224FF40041354800F013FF01225F
:10040C004FF48041324800F00DFF01224FF40051AF
:10041C002F4800F007FF324B1B68013B304A13603A
:10042C002F4B1B68002B4ADC2C4B02221A602C4BE6
:10043C0003221A6043E001224FF40041244800F0EB
:10044C00F1FE00224FF48041214800F0EBFE012226
:10045C004FF400511E4800F0E5FE214B1B68013B98
:10046C001F4A13601E4B1B68002B2ADC1B4B0022FF
:10047C001A601B4B05221A6023E001224FF4004145
:10048C00134800F0CFFE01224FF48041104800F0D9
:10049C00C9FE00224FF400510D4800F0C3FE104B72
:1004AC001B68013B0E4A13600D4B1B68002B0ADCCA
:1004BC000A4B01221A600A4B02221A6003E000BFA9
:1004CC0002E000BF00E000BF00BF80BD5000002074
:1004DC00000801403C0000202800002054000020AF
:1004EC003400002080B500AF01220821134800F031
:1004FC0099FE01221021114800F094FE01222021C6
:10050C000E4800F08FFE012240210C4800F08AFEBC
:10051C0001228021094800F085FE01224FF48071F0
:10052C00064800F07FFE01224FF40071034800F0F2
:10053C0079FE034B00221A6000BF80BD0008014009
:10054C004400002080B500AFFFF7CCFFFFF790FE12
:10055C0000BF80BD80B582B000AF78607B68092B8E
:10056C0000F2948101A252F823F000BFA10500080B
:10057C00ED0500083906000885060008D1060008BC
:10058C001D07000869070008B507000801080008E6
:10059C004D08000800220821BF4800F043FE00224D
:1005AC001021BD4800F03EFE00222021BA4800F088
:1005BC0039FE00224021B84800F034FE0022802190
:1005CC00B54800F02FFE00224FF48071B24800F0C5
:1005DC0029FE01224FF40071AF4800F023FE56E1D2
:1005EC0001220821AC4800F01DFE00221021AA486F
:1005FC0000F018FE00222021A74800F013FE012273
:10060C004021A54800F00EFE01228021A24800F0F6
:10061C0009FE01224FF480719F4800F003FE012275
:10062C004FF400719C4800F0FDFD30E100220821E0
:10063C00994800F0F7FD00221021974800F0F2FDD8
:10064C0001222021944800F0EDFD00224021924827
:10065C0000F0E8FD002280218F4800F0E3FD01222C
:10066C004FF480718C4800F0DDFD00224FF40071D6
:10067C00894800F0D7FD0AE100220821864800F0E5
:10068C00D1FD00221021844800F0CCFD0022202155
:10069C00814800F0C7FD002240217F4800F0C2FDD8
:1006AC00012280217C4800F0BDFD01224FF48071B5
:1006BC00794800F0B7FD00224FF40071764800F045
:1006CC00B1FDE4E001220821734800F0ABFD0022EB
:1006DC001021714800F0A6FD002220216E4800F088
:1006EC00A1FD012240216C4800F09CFD01228021DB
:1006FC00694800F097FD00224FF48071664800F0C5
:10070C0091FD00224FF40071634800F08BFDBEE0B8
:10071C0000220821604800F085FD012210215E486E
:10072C0000F080FD002220215B4800F07BFD0022C0
:10073C004021594800F076FD01228021564800F0F6
:10074C0071FD00224FF48071534800F06BFD0022C4
:10075C004FF40071504800F065FD98E0002208212C
:10076C004D4800F05FFD012210214B4800F05AFD6E
:10077C0000222021484800F055FD00224021464827
:10078C0000F050FD00228021434800F04BFD002278
:10079C004FF48071404800F045FD00224FF4007189
:1007AC003D4800F03FFD72E0002208213A4800F07D
:1007BC0039FD00221021384800F034FD00222021A0
:1007CC00354800F02FFD01224021334800F02AFD6E
:1007DC0001228021304800F025FD01224FF4807168
:1007EC002D4800F01FFD01224FF400712A4800F043
:1007FC0019FD4CE000220821274800F013FD0022CF
:10080C001021254800F00EFD00222021224800F086
:10081C0009FD00224021204800F004FD0022802127
:10082C001D4800F0FFFC00224FF480711A4800F0C4
:10083C00F9FC00224FF40071174800F0F3FC26E09D
:10084C0000220821144800F0EDFC0022102112486F
:10085C0000F0E8FC002220210F4800F0E3FC00220D
:10086C0040210D4800F0DEFC012280210A4800F0F6
:10087C00D9FC00224FF48071074800F0D3FC002211
:10088C004FF40071044800F0CDFC00E000BF00BF45
:10089C000837BD4680BD00BF0008014080B500AFE1
:1008AC00FFF718FD034B1B681846FFF753FE00BFFC
:1008BC0080BD00BF2800002080B400AF054BDB6872
:1008CC00044A43F47F4343F0F003D36000BFBD46BA
:1008DC0080BC7047000C014080B483B000AF7860DE
:1008EC007A680E4B83FB02135910D317C91A0B46A7
:1008FC005B000B449B00D31A7B60094BDB687A6866
:10090C000432012101FA02F2D2431146044A0B408F
:10091C00D36000BF0C37BD4680BC7047ABAAAA2A77
:10092C00000C014080B500AFFFF7C6FF054B0C2251
:10093C001A60054B3B221A60044B32221A6000BF2E
:10094C0080BD00BF4C00002040000020380000207B
:10095C0080B500AFFFF7B0FF214B1B68214A82FB2B
:10096C0003125210DB17D31A0B331846FFF7B4FFE0
:10097C001D4B1B681B4A82FB03125210DB17D31A48
:10098C000B331846FFF7A8FF184B1B680B331846A0
:10099C00FFF7A2FF124B1B680133114A1360104B77
:1009AC001B683B2B07DD0E4B00221A600E4B1B689D
:1009BC0001330D4A13600C4B1B683B2B07DD0A4BB4
:1009CC0000221A60094B1B680133084A1360074B5D
:1009DC001B680B2B02DD054B00221A6000BF80BD8B
:1009EC003800002067666666400000204C0000203E
:1009FC0080B500AF00F032F900F012F800F04CF8BE
:100A0C00FFF790FFFFF79CFBFFF79CFDFFF7B8FB90
:100A1C00FFF744FFFFF79CFF0A2000F081F9F5E790
:100A2C0080B590B000AF07F11803282200211846BA
:100A3C0001F010F83B1D00221A605A609A60DA60CF
:100A4C001A610223BB610123BB621023FB620023EA
:100A5C007B6307F11803184600F0FCFB0346002BE0
:100A6C0001D000F06FF80F237B600023BB600023E4
:100A7C00FB6000233B6100237B613B1D002118467A
:100A8C0000F068FE0346002B01D000F05BF800BFBD
:100A9C004037BD4680BD000080B586B000AF07F181
:100AAC00080300221A605A609A60DA60224B9B6934
:100ABC00214A43F0040393611F4B9B6903F0040329
:100ACC007B607B681C4B9B691B4A43F0080393615A
:100ADC00194B9B6903F008033B603B6800224FF6FF
:100AEC00F871164800F09EFB00224FF6F77114487F
:100AFC0000F098FB4FF6F873BB600123FB600023FA
:100B0C003B6102237B6107F1080319460B4800F097
:100B1C000FFA4FF6F773BB600123FB6000233B61B8
:100B2C0002237B6107F108031946054800F000FA1F
:100B3C0000BF1837BD4680BD0010024000080140C0
:100B4C00000C014080B400AF72B600BFFEE700009D
:100B5C0080B485B000AF154B9B69144A43F0010378
:100B6C009361124B9B6903F00103BB60BB680F4B95
:100B7C00DB690E4A43F08053D3610C4BDB6903F005
:100B8C0080537B607B680A4B5B68FB60FB6823F0DF
:100B9C00E063FB60FB6843F08063FB60044AFB6826
:100BAC00536000BF1437BD4680BC70470010024034
:100BBC000000014080B400AFFEE780B400AFFEE758
:100BCC0080B400AFFEE780B400AFFEE780B400AFA6
:100BDC00FEE780B400AF00BFBD4680BC704780B458
:100BEC0000AF00BFBD4680BC704780B400AF00BFF3
:100BFC00BD4680BC704780B500AF00F075F800BFF3
:100C0C0080BD80B400AF00BFBD4680BC7047000003
:100C1C00FFF7F7FF0B480C490C4A002302E0D458AD
:100C2C00C4500433C4188C42F9D3094A094C00232C
:100C3C0001E013600432A242FBD300F0E7FEFFF7A1
:100C4C00D7FE7047000000200C000020B41A0008EA
:100C5C000C00002064000020FEE7000080B500AF0F
:100C6C00084B1B68074A43F010031360032000F085
:100C7C002BF90F2000F008F8FFF76AFF0023184645
:100C8C0080BD00BF0020024080B582B000AF78600C
:100C9C00124B1A68124B1B7819464FF47A73B3FB3C
:100CAC00F1F3B2FBF3F3184600F035F90346002BD1
:100CBC0001D001230EE07B680F2B0AD80022796843
:100CCC004FF0FF3000F00BF9064A7B6813600023ED
:100CDC0000E0012318460837BD4680BD0000002007
:100CEC00080000200400002080B400AF054B1B78E6
:100CFC001A46054B1B681344034A136000BFBD46DC
:100D0C0080BC7047080000206000002080B400AF59
:100D1C00024B1B681846BD4680BC70476000002023
:100D2C0080B584B000AF7860FFF7F0FFB8607B68E7
:100D3C00FB60FB68B3F1FF3F05D00A4B1B781A46EA
:100D4C00FB681344FB6000BFFFF7E0FF0246BB6883
:100D5C00D31AFA689A42F7D800BF00BF1037BD46C5
:100D6C0080BD00BF0800002080B485B000AF786063
:100D7C007B6803F00703FB600C4BDB68BB60BA6855
:100D8C004FF6FF031340BB60FB681A02BB681343AA
:100D9C0043F0BF6343F40033BB60044ABB68D360C9
:100DAC0000BF1437BD4680BC704700BF00ED00E0AB
:100DBC0080B400AF044BDB681B0A03F00703184632
:100DCC00BD4680BC704700BF00ED00E080B483B02E
:100DDC0000AF03463960FB7197F90730002B0ADB33
:100DEC003B68DAB20C4997F907301201D2B20B44C6
:100DFC0083F800230AE03B68DAB20849FB7903F078
:100E0C000F03043B1201D2B20B441A7600BF0C370D
:100E1C00BD4680BC704700BF00E100E000ED00E083
:100E2C0080B489B000AFF860B9607A60FB6803F0F9
:100E3C000703FB61FB69C3F10703042B28BF0423E1
:100E4C00BB61FB690433062B02D9FB69033B00E051
:100E5C0000237B614FF0FF32BB6902FA03F3DA43E4
:100E6C00BB681A407B699A404FF0FF317B6901FAED
:100E7C0003F3D9437B680B40134318462437BD4614
:100E8C0080BC704780B582B000AF78607B68013B56
:100E9C00B3F1807F01D301230FE00A4A7B68013B49
:100EAC0053600F214FF0FF30FFF790FF054B0022EE
:100EBC009A60044B07221A60002318460837BD4677
:100ECC0080BD00BF10E000E080B582B000AF78605C
:100EDC007868FFF749FF00BF0837BD4680BD80B575
:100EEC0086B000AF0346B9607A60FB7300237B6168
:100EFC00FFF75EFF78617A68B9687869FFF790FF51
:100F0C00024697F90F3011461846FFF75FFF00BFF6
:100F1C001837BD4680BD80B582B000AF7860786868
:100F2C00FFF7B0FF034618460837BD4680BD0000EA
:100F3C0080B48BB000AF7860396000237B620023F3
:100F4C003B6248E101227B6A02FA03F3FB613B68D6
:100F5C001B68FA691340BB61BA69FB699A4240F09D
:100F6C0037813B685B68A34A93425ED0A14A9342A7
:100F7C0075D8A14A934258D09F4A93426FD89F4A42
:100F8C00934252D09D4A934269D89D4A93424CD089
:100F9C009B4A934263D89B4A934246D0994A9342C8
:100FAC005DD8122B2AD8122B59D801A252F823F053
:100FBC0037100008111000082310000865100008F5
:100FCC006B1000086B1000086B1000086B10000809
:100FDC006B1000086B1000086B1000086B100008F9
:100FEC006B1000086B1000086B1000086B100008E9
:100FFC006B100008191000082D100008824A93424B
:10100C0013D02CE03B68DB683B6229E03B68DB6873
:10101C0004333B6224E03B68DB6808333B621FE02F
:10102C003B68DB680C333B621AE03B689B68002B27
:10103C0002D104233B6213E03B689B68012B05D172
:10104C0008233B627B68FA691A6109E008233B625A
:10105C007B68FA695A6103E000233B6200E000BF41
:10106C00BB69FF2B01D87B6801E07B6804337B6193
:10107C00BB69FF2B02D87B6A9B0002E07B6A083BB2
:10108C009B003B617B691A680F213B6901FA03F3F2
:10109C00DB431A40396A3B6901FA03F31A437B6953
:1010AC001A603B685B6803F08053002B00F0908063
:1010BC00564B9B69554A43F001039361534B9B6913
:1010CC0003F00103BB60BB68514A7B6A9B08023387
:1010DC0052F82330FB607B6A03F003039B000F2262
:1010EC0002FA03F3DB43FA681340FB607B68494A5E
:1010FC0093420DD07B68484A934207D07B68474A9D
:10110C00934201D1022304E0032302E0012300E017
:10111C0000237A6A02F0030292009340FA681343A8
:10112C00FB603B497B6A9B080233FA6841F8232039
:10113C003B685B6803F48013002B06D0384B9A682D
:10114C003749BB6913438B6006E0354B9A68BB6922
:10115C00DB43334913408B603B685B6803F400133B
:10116C00002B06D02E4BDA682D49BB691343CB609C
:10117C0006E02B4BDA68BB69DB4329491340CB6093
:10118C003B685B6803F40033002B06D0244B5A6891
:10119C002349BB6913434B6006E0214B5A68BB697A
:1011AC00DB431F4913404B603B685B6803F480339F
:1011BC00002B06D01A4B1A681949BB6913430B60F4
:1011CC0006E0174B1A68BB69DB43154913400B60EB
:1011DC007B6A01337B623B681A687B6A22FA03F3F1
:1011EC00002B7FF4AFAE00BF00BF2C37BD4680BCD8
:1011FC00704700BF000032100000311000002210B8
:10120C00000021100000121000001110001002400C
:10121C000000014000080140000C0140001001409A
:10122C000004014080B483B000AF78600B467B8033
:10123C0013467B707B78002B03D07A887B681A610D
:10124C0003E07B881A047B681A6100BF0C37BD462B
:10125C0080BC704780B586B000AF78607B68002B8F
:10126C0001D101236CE27B681B6803F00103002BA6
:10127C0000F08780924B5B6803F00C03042B0CD0BE
:10128C008F4B5B6803F00C03082B12D18C4B5B6803
:10129C0003F48033B3F5803F0BD1894B1B6803F407
:1012AC000033002B6CD07B685B68002B68D101236A
:1012BC0046E27B685B68B3F5803F06D1804B1B68C8
:1012CC007F4A43F4803313602EE07B685B68002B0D
:1012DC000CD17B4B1B687A4A23F480331360784B18
:1012EC001B68774A23F4802313601DE07B685B68DE
:1012FC00B3F5A02F0CD1724B1B68714A43F48023B9
:10130C0013606F4B1B686E4A43F4803313600BE021
:10131C006B4B1B686A4A23F480331360684B1B6861
:10132C00674A23F4802313607B685B68002B13D01F
:10133C00FFF7ECFC386108E0FFF7E8FC02463B697C
:10134C00D31A642B01D90323FAE15D4B1B6803F418
:10135C000033002BF0D014E0FFF7D8FC386108E024
:10136C00FFF7D4FC02463B69D31A642B01D9032343
:10137C00E6E1534B1B6803F40033002BF0D100E083
:10138C0000BF7B681B6803F00203002B63D04C4B3F
:10139C005B6803F00C03002B0BD0494B5B6803F02C
:1013AC000C03082B1CD1464B5B6803F48033002BD9
:1013BC0016D1434B1B6803F00203002B05D07B684E
:1013CC001B69012B01D00123BAE13D4B1B6823F0B3
:1013DC00F8027B685B69DB00394913430B603AE028
:1013EC007B681B69002B20D0364B01221A60FFF75B
:1013FC008DFC386108E0FFF789FC02463B69D31A83
:10140C00022B01D903239BE12D4B1B6803F0020334
:10141C00002BF0D02A4B1B6823F0F8027B685B6929
:10142C00DB00274913430B6015E0264B00221A60A2
:10143C00FFF76CFC386108E0FFF768FC02463B697B
:10144C00D31A022B01D903237AE11D4B1B6803F03D
:10145C000203002BF0D17B681B6803F00803002B00
:10146C003AD07B689B69002B19D0174B01221A606C
:10147C00FFF74CFC386108E0FFF748FC02463B697B
:10148C00D31A022B01D903235AE10D4B5B6A03F0EB
:10149C000203002BF0D0012000F09AFA1CE00A4B5A
:1014AC0000221A60FFF732FC38610FE0FFF72EFCC8
:1014BC0002463B69D31A022B08D9032340E100BF33
:1014CC000010024000004242800442429E4B5B6A84
:1014DC0003F00203002BE9D17B681B6803F00403C3
:1014EC00002B00F0A6800023FB75974BDB6903F003
:1014FC008053002B0DD1944BDB69934A43F08053FE
:10150C00D361914BDB6903F08053BB60BB68012353
:10151C00FB758E4B1B6803F48073002B18D18B4B1F
:10152C001B688A4A43F480731360FFF7EFFB386142
:10153C0008E0FFF7EBFB02463B69D31A642B01D999
:10154C000323FDE0814B1B6803F48073002BF0D068
:10155C007B68DB68012B06D17B4B1B6A7A4A43F014
:10156C00010313622DE07B68DB68002B0CD1764BFA
:10157C001B6A754A23F001031362734B1B6A724A90
:10158C0023F0040313621CE07B68DB68052B0CD191
:10159C006D4B1B6A6C4A43F0040313626A4B1B6A63
:1015AC00694A43F0010313620BE0674B1B6A664AFE
:1015BC0023F001031362644B1B6A634A23F0040398
:1015CC0013627B68DB68002B15D0FFF79FFB38613B
:1015DC000AE0FFF79BFB02463B69D31A41F28832C3
:1015EC00934201D90323ABE0574B1B6A03F0020370
:1015FC00002BEED014E0FFF789FB38610AE0FFF70F
:10160C0085FB02463B69D31A41F28832934201D9D9
:10161C00032395E04C4B1B6A03F00203002BEED125
:10162C00FB7D012B05D1484BDB69474A23F08053E6
:10163C00D3617B68DB69002B00F08180424B5B68D7
:10164C0003F00C03082B61D07B68DB69022B46D1BD
:10165C003F4B00221A60FFF759FB386108E0FFF797
:10166C0055FB02463B69D31A022B01D9032367E0D1
:10167C00354B1B6803F00073002BF0D17B681B6AA1
:10168C00B3F5803F08D1304B5B6823F400327B68A4
:10169C009B682D4913434B602B4B5B6823F47412EE
:1016AC007B68196A7B685B6A0B43274913434B6061
:1016BC00274B01221A60FFF729FB386108E0FFF77E
:1016CC0025FB02463B69D31A022B01D9032337E0D1
:1016DC001D4B1B6803F00073002BF0D02FE01C4B4C
:1016EC0000221A60FFF712FB386108E0FFF70EFBCF
:1016FC0002463B69D31A022B01D9032320E0124B7B
:10170C001B6803F00073002BF0D118E07B68DB69D9
:10171C00012B01D1012313E00B4B5B68FB60FB68D1
:10172C0003F480327B681B6A9A4206D1FB6803F48F
:10173C0070127B685B6A9A4201D0012300E000239F
:10174C0018461837BD4680BD00100240007000409E
:10175C006000424280B584B000AF786039607B682D
:10176C00002B01D10123D0E06A4B1B6803F0070367
:10177C003A689A4210D9674B1B6823F007026549F7
:10178C003B6813430B60634B1B6803F007033A6819
:10179C009A4201D00123B8E07B681B6803F0020376
:1017AC00002B20D07B681B6803F00403002B05D0B2
:1017BC00594B5B68584A43F4E06353607B681B6881
:1017CC0003F00803002B05D0534B5B68524A43F4DB
:1017DC0060535360504B5B6823F0F0027B689B684E
:1017EC004D4913434B607B681B6803F00103002BCE
:1017FC0040D07B685B68012B07D1474B1B6803F417
:10180C000033002B15D101237FE07B685B68022B32
:10181C0007D1414B1B6803F00073002B09D1012346
:10182C0073E03D4B1B6803F00203002B01D1012335
:10183C006BE0394B5B6823F003027B685B683649CD
:10184C0013434B60FFF762FAF8600AE0FFF75EFAA9
:10185C000246FB68D31A41F28832934201D9032322
:10186C0053E02D4B5B6803F00C027B685B689B00BC
:10187C009A42EBD1274B1B6803F007033A689A4254
:10188C0010D2244B1B6823F0070222493B681343F8
:10189C000B60204B1B6803F007033A689A4201D097
:1018AC00012332E07B681B6803F00403002B08D093
:1018BC00194B5B6823F4E0627B68DB6816491343C1
:1018CC004B607B681B6803F00803002B09D0124B9C
:1018DC005B6823F460527B681B69DB000E49134381
:1018EC004B6000F021F802460B4B5B681B0903F0C0
:1018FC000F030A49CB5C22FA03F3094A1360094B24
:10190C001B681846FFF7C0F9002318461037BD4670
:10191C0080BD00BF0020024000100240881A000861
:10192C00000000200400002080B487B000AF00232A
:10193C00FB600023BB6000237B6100237B600023E2
:10194C003B611E4B5B68FB60FB6803F00C03042BD4
:10195C0002D0082B03D027E0194B3B6127E0FB6832
:10196C009B0C03F00F03174AD35C7B60FB6803F4FA
:10197C008033002B10D0114B5B685B0C03F0010320
:10198C00114AD35CBB607B680D4A02FB03F2BB6857
:10199C00B2FBF3F37B6104E07B680C4A02FB03F3BC
:1019AC007B617B693B6102E0054B3B6100BF3B699E
:1019BC0018461C37BD4680BC704700BF0010024063
:1019CC0000127A00981A0008A81A000800093D00B5
:1019DC0080B485B000AF78600A4B1B680A4AA2FB42
:1019EC0003235B0A7A6802FB03F3FB6000BFFB680E
:1019FC005A1EFA60002BF9D100BF00BF1437BD4648
:101A0C0080BC704700000020D34D621070B50026DA
:101A1C000C4D0D4C641BA410A64209D100F022F809
:101A2C0000260A4D0A4C641BA410A64205D170BDB9
:101A3C0055F8043B98470136EEE755F8043B9847B8
:101A4C000136F2E7AC1A0008AC1A0008AC1A000810
:101A5C00B01A000803460244934200D1704703F8C1
:101A6C00011BF9E7F8B500BFF8BC08BC9E467047EF
:0C1A7C00F8B500BFF8BC08BC9E467047DF
:101A88000000000000000000010203040607080926
:101A980002030405060708090A0B0C0D0E0F1010A7
:041AA8000102000037
:041AAC0031010008FC
:041AB0000D0100081C
:0C1AB40000127A00100000000100000089
:0400000508000C1DC6
:00000001FF
